{
  "transactions": [
    {
      "hash": "0xfd3a5c0a8a28455455a4d3856dabe851e661e8b9e3c5378c87a85bff5c772085",
      "transactionType": "CALL",
      "contractName": "Crowdfunding",
      "contractAddress": "0x60e7d551396c65b4ffa7b03848e7d88e3e064b2c",
      "function": "launch(uint256,uint32,uint32,bool)",
      "arguments": [
        "100000000000000000000",
        "1767907265",
        "1768771265",
        "false"
      ],
      "transaction": {
        "from": "0x3abba09c1f53471660d45f16f84eabc82ba96acf",
        "to": "0x60e7d551396c65b4ffa7b03848e7d88e3e064b2c",
        "gas": "0x224a7",
        "value": "0x0",
        "input": "0x039a3c150000000000000000000000000000000000000000000000056bc75e2d631000000000000000000000000000000000000000000000000000000000000069601fc100000000000000000000000000000000000000000000000000000000696d4ec10000000000000000000000000000000000000000000000000000000000000000",
        "nonce": "0x3",
        "chainId": "0xaa36a7"
      },
      "additionalContracts": [],
      "isFixedGasLimit": false
    }
  ],
  "receipts": [
    {
      "status": "0x1",
      "cumulativeGasUsed": "0x9940ae",
      "logs": [
        {
          "address": "0x60e7d551396c65b4ffa7b03848e7d88e3e064b2c",
          "topics": [
            "0x45dcb463ec15799bc2f8884fada8b3e8d8bd7bab04e9ddfb708ddeeed1462fe4",
            "0x0000000000000000000000003abba09c1f53471660d45f16f84eabc82ba96acf"
          ],
          "data": "0x00000000000000000000000000000000000000000000000000000000000000020000000000000000000000000000000000000000000000056bc75e2d631000000000000000000000000000000000000000000000000000000000000069601fc100000000000000000000000000000000000000000000000000000000696d4ec10000000000000000000000000000000000000000000000000000000000000000",
          "blockHash": "0x757e1fbf29eef2d74f56383cea06dd0155d7983f17b30bdc9529909535da6633",
          "blockNumber": "0x98aa5e",
          "blockTimestamp": "0x69601f98",
          "transactionHash": "0xfd3a5c0a8a28455455a4d3856dabe851e661e8b9e3c5378c87a85bff5c772085",
          "transactionIndex": "0x41",
          "logIndex": "0xc7",
          "removed": false
        }
      ],
      "logsBloom": "0x00080000000000000000000000000000000000000000000000000000000000000000000020000000000000100000000000000000000000000000000000000000000000000000000000000000000000000000000000000000000000000000000000000000000200000000000000000000000840000000000000000000000000000000000000000000000000000000400000000000000000000000000000000000000000000000000000000000000000000000000000000000000000000000000000000000000000000000000000000000000000000000000000000000000000000000002000000000000200000000000000000000000000000000000000000000",
      "type": "0x2",
      "transactionHash": "0xfd3a5c0a8a28455455a4d3856dabe851e661e8b9e3c5378c87a85bff5c772085",
      "transactionIndex": "0x41",
      "blockHash": "0x757e1fbf29eef2d74f56383cea06dd0155d7983f17b30bdc9529909535da6633",
      "blockNumber": "0x98aa5e",
      "gasUsed": "0x18d38",
      "effectiveGasPrice": "0xf424d",
      "from": "0x3abba09c1f53471660d45f16f84eabc82ba96acf",
      "to": "0x60e7d551396c65b4ffa7b03848e7d88e3e064b2c",
      "contractAddress": null
    }
  ],
  "libraries": [],
  "pending": [],
  "returns": {},
  "timestamp": 1767907226424,
  "chain": 11155111,
  "commit": "ac2fc99"
}