{
  "transactions": [
    {
      "hash": "0x270ddd366dafa920fe8ba44633988580b8ead9ba226caae4aee23b563f5b62ae",
      "transactionType": "CALL",
      "contractName": null,
      "contractAddress": "0x60e7d551396c65b4ffa7b03848e7d88e3e064b2c",
      "function": "launch(uint256,uint32,uint32,bool)",
      "arguments": [
        "100000000000000000000",
        "1767485611",
        "1767489211",
        "false"
      ],
      "transaction": {
        "from": "0x3abba09c1f53471660d45f16f84eabc82ba96acf",
        "to": "0x60e7d551396c65b4ffa7b03848e7d88e3e064b2c",
        "gas": "0x280eb",
        "value": "0x0",
        "input": "0x039a3c150000000000000000000000000000000000000000000000056bc75e2d63100000000000000000000000000000000000000000000000000000000000006959b0ab000000000000000000000000000000000000000000000000000000006959bebb0000000000000000000000000000000000000000000000000000000000000000",
        "nonce": "0x2",
        "chainId": "0xaa36a7"
      },
      "additionalContracts": [],
      "isFixedGasLimit": false
    }
  ],
  "receipts": [
    {
      "status": "0x1",
      "cumulativeGasUsed": "0x809167",
      "logs": [
        {
          "address": "0x60e7d551396c65b4ffa7b03848e7d88e3e064b2c",
          "topics": [
            "0x45dcb463ec15799bc2f8884fada8b3e8d8bd7bab04e9ddfb708ddeeed1462fe4",
            "0x0000000000000000000000003abba09c1f53471660d45f16f84eabc82ba96acf"
          ],
          "data": "0x00000000000000000000000000000000000000000000000000000000000000010000000000000000000000000000000000000000000000056bc75e2d63100000000000000000000000000000000000000000000000000000000000006959b0ab000000000000000000000000000000000000000000000000000000006959bebb0000000000000000000000000000000000000000000000000000000000000000",
          "blockHash": "0x2cda09c19cb6667fa7f417409a0b552b9e9e6b4918452cada34799a9ed9baaf6",
          "blockNumber": "0x983228",
          "blockTimestamp": "0x6959aff0",
          "transactionHash": "0x270ddd366dafa920fe8ba44633988580b8ead9ba226caae4aee23b563f5b62ae",
          "transactionIndex": "0x4f",
          "logIndex": "0xa0",
          "removed": false
        }
      ],
      "logsBloom": "0x00080000000000000000000000000000000000000000000000000000000000000000000020000000000000100000000000000000000000000000000000000000000000000000000000000000000000000000000000000000000000000000000000000000000200000000000000000000000840000000000000000000000000000000000000000000000000000000400000000000000000000000000000000000000000000000000000000000000000000000000000000000000000000000000000000000000000000000000000000000000000000000000000000000000000000000002000000000000200000000000000000000000000000000000000000000",
      "type": "0x2",
      "transactionHash": "0x270ddd366dafa920fe8ba44633988580b8ead9ba226caae4aee23b563f5b62ae",
      "transactionIndex": "0x4f",
      "blockHash": "0x2cda09c19cb6667fa7f417409a0b552b9e9e6b4918452cada34799a9ed9baaf6",
      "blockNumber": "0x983228",
      "gasUsed": "0x1d004",
      "effectiveGasPrice": "0xf4248",
      "from": "0x3abba09c1f53471660d45f16f84eabc82ba96acf",
      "to": "0x60e7d551396c65b4ffa7b03848e7d88e3e064b2c",
      "contractAddress": null
    }
  ],
  "libraries": [],
  "pending": [],
  "returns": {},
  "timestamp": 1767485425691,
  "chain": 11155111,
  "commit": "ac2fc99"
}