{
  "transactions": [
    {
      "hash": "0xd075bb6a4f3f8026f3f4f31eb0c0b33e871f9935897d460df6b3df30e3fb5a96",
      "transactionType": "CALL",
      "contractName": "Crowdfunding",
      "contractAddress": "0x60e7d551396c65b4ffa7b03848e7d88e3e064b2c",
      "function": "launch(uint256,uint32,uint32,bool)",
      "arguments": [
        "100000000000000000000",
        "1768059353",
        "1768923353",
        "false"
      ],
      "transaction": {
        "from": "0x3abba09c1f53471660d45f16f84eabc82ba96acf",
        "to": "0x60e7d551396c65b4ffa7b03848e7d88e3e064b2c",
        "gas": "0x224a7",
        "value": "0x0",
        "input": "0x039a3c150000000000000000000000000000000000000000000000056bc75e2d6310000000000000000000000000000000000000000000000000000000000000696271d900000000000000000000000000000000000000000000000000000000696fa0d90000000000000000000000000000000000000000000000000000000000000000",
        "nonce": "0xc",
        "chainId": "0xaa36a7"
      },
      "additionalContracts": [],
      "isFixedGasLimit": false
    }
  ],
  "receipts": [
    {
      "status": "0x1",
      "cumulativeGasUsed": "0x248088e",
      "logs": [
        {
          "address": "0x60e7d551396c65b4ffa7b03848e7d88e3e064b2c",
          "topics": [
            "0x45dcb463ec15799bc2f8884fada8b3e8d8bd7bab04e9ddfb708ddeeed1462fe4",
            "0x0000000000000000000000003abba09c1f53471660d45f16f84eabc82ba96acf"
          ],
          "data": "0x00000000000000000000000000000000000000000000000000000000000000030000000000000000000000000000000000000000000000056bc75e2d6310000000000000000000000000000000000000000000000000000000000000696271d900000000000000000000000000000000000000000000000000000000696fa0d90000000000000000000000000000000000000000000000000000000000000000",
          "blockHash": "0x2de31c03a8c4c6feff0f145773043b2b7c0e693ad991d80d8c4345bcc66c7bbf",
          "blockNumber": "0x98d588",
          "blockTimestamp": "0x696271b0",
          "transactionHash": "0xd075bb6a4f3f8026f3f4f31eb0c0b33e871f9935897d460df6b3df30e3fb5a96",
          "transactionIndex": "0xb3",
          "logIndex": "0x3b3",
          "removed": false
        }
      ],
      "logsBloom": "0x00080000000000000000000000000000000000000000000000000000000000000000000020000000000000100000000000000000000000000000000000000000000000000000000000000000000000000000000000000000000000000000000000000000000200000000000000000000000840000000000000000000000000000000000000000000000000000000400000000000000000000000000000000000000000000000000000000000000000000000000000000000000000000000000000000000000000000000000000000000000000000000000000000000000000000000002000000000000200000000000000000000000000000000000000000000",
      "type": "0x2",
      "transactionHash": "0xd075bb6a4f3f8026f3f4f31eb0c0b33e871f9935897d460df6b3df30e3fb5a96",
      "transactionIndex": "0xb3",
      "blockHash": "0x2de31c03a8c4c6feff0f145773043b2b7c0e693ad991d80d8c4345bcc66c7bbf",
      "blockNumber": "0x98d588",
      "gasUsed": "0x18d38",
      "effectiveGasPrice": "0x116753",
      "from": "0x3abba09c1f53471660d45f16f84eabc82ba96acf",
      "to": "0x60e7d551396c65b4ffa7b03848e7d88e3e064b2c",
      "contractAddress": null
    }
  ],
  "libraries": [],
  "pending": [],
  "returns": {},
  "timestamp": 1768059312751,
  "chain": 11155111,
  "commit": "ac2fc99"
}