{
  "transactions": [
    {
      "hash": "0x3cc779bece8487f4a3894c9f701b9a4d081267e131cc1a5a3dae7896488ae057",
      "transactionType": "CALL",
      "contractName": "Crowdfunding",
      "contractAddress": "0x60e7d551396c65b4ffa7b03848e7d88e3e064b2c",
      "function": "launch(uint256,uint32,uint32,bool)",
      "arguments": [
        "100000000000000000000",
        "1768059888",
        "1768923888",
        "false"
      ],
      "transaction": {
        "from": "0x3abba09c1f53471660d45f16f84eabc82ba96acf",
        "to": "0x60e7d551396c65b4ffa7b03848e7d88e3e064b2c",
        "gas": "0x224a7",
        "value": "0x0",
        "input": "0x039a3c150000000000000000000000000000000000000000000000056bc75e2d6310000000000000000000000000000000000000000000000000000000000000696273f000000000000000000000000000000000000000000000000000000000696fa2f00000000000000000000000000000000000000000000000000000000000000000",
        "nonce": "0xf",
        "chainId": "0xaa36a7"
      },
      "additionalContracts": [],
      "isFixedGasLimit": false
    }
  ],
  "receipts": [
    {
      "status": "0x1",
      "cumulativeGasUsed": "0x1a9a1f1",
      "logs": [
        {
          "address": "0x60e7d551396c65b4ffa7b03848e7d88e3e064b2c",
          "topics": [
            "0x45dcb463ec15799bc2f8884fada8b3e8d8bd7bab04e9ddfb708ddeeed1462fe4",
            "0x0000000000000000000000003abba09c1f53471660d45f16f84eabc82ba96acf"
          ],
          "data": "0x00000000000000000000000000000000000000000000000000000000000000040000000000000000000000000000000000000000000000056bc75e2d6310000000000000000000000000000000000000000000000000000000000000696273f000000000000000000000000000000000000000000000000000000000696fa2f00000000000000000000000000000000000000000000000000000000000000000",
          "blockHash": "0xd4c8a301a77b128e2031cc8daa9d48b301c712a5cece214b80aed1e9479438aa",
          "blockNumber": "0x98d5a1",
          "blockTimestamp": "0x69627318",
          "transactionHash": "0x3cc779bece8487f4a3894c9f701b9a4d081267e131cc1a5a3dae7896488ae057",
          "transactionIndex": "0x65",
          "logIndex": "0x2eb",
          "removed": false
        }
      ],
      "logsBloom": "0x00080000000000000000000000000000000000000000000000000000000000000000000020000000000000100000000000000000000000000000000000000000000000000000000000000000000000000000000000000000000000000000000000000000000200000000000000000000000840000000000000000000000000000000000000000000000000000000400000000000000000000000000000000000000000000000000000000000000000000000000000000000000000000000000000000000000000000000000000000000000000000000000000000000000000000000002000000000000200000000000000000000000000000000000000000000",
      "type": "0x2",
      "transactionHash": "0x3cc779bece8487f4a3894c9f701b9a4d081267e131cc1a5a3dae7896488ae057",
      "transactionIndex": "0x65",
      "blockHash": "0xd4c8a301a77b128e2031cc8daa9d48b301c712a5cece214b80aed1e9479438aa",
      "blockNumber": "0x98d5a1",
      "gasUsed": "0x18d38",
      "effectiveGasPrice": "0x13d43a",
      "from": "0x3abba09c1f53471660d45f16f84eabc82ba96acf",
      "to": "0x60e7d551396c65b4ffa7b03848e7d88e3e064b2c",
      "contractAddress": null
    }
  ],
  "libraries": [],
  "pending": [],
  "returns": {},
  "timestamp": 1768059672847,
  "chain": 11155111,
  "commit": "ac2fc99"
}